:020000040800F2
:10000000FCFF0020DD0700082D0800082D0800086F
:100010002D0800082D0800082D0800080000000029
:100020000000000000000000000000002D08000893
:100030002D080008000000002D080008A13100086C
:100040002D0800082D0800082D0800082D080008BC
:100050002D0800082D0800082D0800082D080008AC
:100060002D0800082D0800082D0800082D0800089C
:100070002D0800082D0800082D0800082D0800088C
:100080002D0800082D0800082D08000800000000B9
:100090000000000000000000000000002D08000823
:1000A0002D0800082D0800082D0800082D0800085C
:1000B0002D0800082D0800082D0800082D0800084C
:1000C0002D0800082D0800082D0800082D0800083C
:1000D0002D0800082D0800082D0800080000000069
:1000E0002D0800082D0800082D0800080000000059
:1000F0000000000000000000000000002D080008C3
:10010000000000002D0800082D0800082D08000838
:1001100000000000000000000000000000000000DF
:100120002D0800082D0800082D0800082D080008DB
:100130002D08000800000000000000000000000082
:10014000000000000000000000000000812A0008FC
:100150002D0800082D0800082D0800082D080008AB
:100160002D0800082D080008000000000000000015
:10017000000000000000000000000000000000007F
:10018000000000002D080008000000000000000032
:080190002D0800082D080008ED
:1001C00070B50F4E0F4D761BB61018BF002405D02A
:1001D000013455F8043B9847A642F9D10A4E0B4D1D
:1001E000761B02F04BFCB61018BF002406D0013479
:1001F00055F8043B9847A642F9D170BD70BD00BFC9
:10020000083F0008083F0008083F0008083F0008B2
:1002100053B94AB9002908BF00281CBF4FF0FF316D
:100220004FF0FF3000F07AB9ADF1080C6DE904CE63
:1002300000F006F8DDF804E0DDE9022304B07047C1
:100240002DE9F0478C460D460446089E002B51D1FF
:100250008A4217466DD9B2FA82FEBEF1000F0BD06A
:10026000CEF1200C01FA0EF520FA0CFC02FA0EF782
:100270004CEA050C00FA0EF44FEA174A250CBCFBB9
:10028000FAF81FFA87F90AFB18CC45EA0C4508FB77
:1002900009F3AB420AD9ED1908F1FF3280F023814E
:1002A000AB4240F22081A8F102083D44ED1AA4B20D
:1002B000B5FBFAF00AFB105544EA054400FB09F9C6
:1002C000A14509D9E41900F1FF3380F00A81A14565
:1002D00040F2078102383C44A4EB090440EA08409C
:1002E0000021002E61D024FA0EF4002334607360E4
:1002F000BDE8F0878B4207D9002E54D0002186E854
:1003000021000846BDE8F087B3FA83F1002940F0E8
:100310008E80AB4202D3824200F2FA80841A65EBEF
:1003200003050120AC46002E3FD086E81010BDE842
:10033000F08712B90127B7FBF2F7B7FA87FEBEF1D3
:10034000000F34D1EB1B3A0C1FFA87FC0121B3FBE1
:10035000F2F8250C02FB183345EA03450CFB08F3C1
:10036000AB4207D9ED1908F1FF3002D2AB4200F2DF
:10037000D1808046ED1AA3B2B5FBF2F002FB105516
:1003800043EA05440CFB00FCA44507D9E41900F13D
:10039000FF3302D2A44500F2B8801846A4EB0C0447
:1003A00040EA08409DE731463046BDE8F087CEF18F
:1003B000200405FA0EF307FA0EF720FA04F83A0CB7
:1003C00025FA04F448EA0308B4FBF2F14FEA1845B1
:1003D00002FB11441FFA87FC45EA044501FB0CF3BC
:1003E000AB4200FA0EF409D9ED1901F1FF3080F0AB
:1003F0008A80AB4240F2878002393D44EB1A1FFAF3
:1004000088F5B3FBF2F002FB103345EA034500FB2D
:100410000CF3AB4207D9ED1900F1FF386FD2AB42B4
:100420006DD902383D44EB1A40EA01418FE7C1F132
:10043000200722FA07F88B4005FA01F448EA030383
:1004400020FA07FE4FEA134CFD404EEA040EB5FBBE
:10045000FCF94FEA1E440CFB19551FFA83F844EAD5
:10046000054509FB08F4AC4202FA01F200FA01FA70
:1004700008D9ED1809F1FF3043D2AC4241D9A9F1B6
:1004800002091D442D1B1FFA8EFEB5FBFCF00CFB70
:1004900010554EEA054400FB08F8A04507D9E418BA
:1004A00000F1FF3529D2A04527D902381C4440EA83
:1004B0000940A4EB0804A0FB02894C45C6464D4602
:1004C00015D312D056B1BAEB0E0364EB050404FA4F
:1004D00007F7CB401F43CC40376074600021BDE874
:1004E000F0871846F8E69046E0E6C245EAD2B8EB57
:1004F000020E69EB03050138E4E72846D7E74046DA
:1005000091E78146BEE7014678E702383C4445E77B
:10051000084608E7A8F102083D442BE7704700BFF2
:10052000844641EA000313F003036DD1403A41D3FE
:1005300051F8043B40F8043B51F8043B40F8043BBD
:1005400051F8043B40F8043B51F8043B40F8043BAD
:1005500051F8043B40F8043B51F8043B40F8043B9D
:1005600051F8043B40F8043B51F8043B40F8043B8D
:1005700051F8043B40F8043B51F8043B40F8043B7D
:1005800051F8043B40F8043B51F8043B40F8043B6D
:1005900051F8043B40F8043B51F8043B40F8043B5D
:1005A00051F8043B40F8043B51F8043B40F8043B4D
:1005B000403ABDD2303211D351F8043B40F8043BED
:1005C00051F8043B40F8043B51F8043B40F8043B2D
:1005D00051F8043B40F8043B103AEDD20C3205D3FD
:1005E00051F8043B40F8043B043AF9D2043208D0F5
:1005F000D2071CBF11F8013B00F8013B01D30B8867
:1006000003806046704700BF082A13D38B078DD044
:1006100010F003038AD0C3F10403D21ADB071CBF16
:1006200011F8013B00F8013B80D331F8023B20F880
:10063000023B7BE7043AD9D3013A11F8013B00F8B9
:10064000013BF9D20B7803704B7843708B78837041
:100650006046704770B4860746D0541E002A41D0C9
:10066000CAB2034602E014F1FF343BD303F8012B76
:100670009D07F8D1032C2ED9CDB245EA05250F2CC4
:1006800045EA054519D903F110022646103E0F2E02
:1006900042F8105C42F80C5C42F8085C42F8045CDA
:1006A00002F11002F2D8A4F1100222F00F0204F0BD
:1006B0000F041032032C13440DD91E462246043A6F
:1006C000032A46F8045BFAD8221F22F00302043200
:1006D000134404F003042CB1C9B21C4403F8011BF9
:1006E0009C42FBD170BC704714460346C2E700BF72
:1006F00000000000000000000000000000000000FA
:1007000090F800F06DE9024520F007016FF0000C51
:1007100010F0070491F820F040F049804FF00004F9
:100720006FF00700D1E9002391F840F000F10800D4
:1007300082FA4CF2A4FA8CF283FA4CF3A2FA8CF30C
:100740004BBBD1E9022382FA4CF200F10800A4FA73
:100750008CF283FA4CF3A2FA8CF3E3B9D1E90423C7
:1007600082FA4CF200F10800A4FA8CF283FA4CF3FE
:10077000A2FA8CF37BB9D1E9062301F1200182FAB8
:100780004CF200F10800A4FA8CF283FA4CF3A2FABE
:100790008CF3002BC6D0002A04BF04301A4612BACC
:1007A000B2FA82F2FDE8024500EBD2007047D1E9CF
:1007B000002304F00305C4F100004FEAC50514F05E
:1007C000040F91F840F00CFA05F562EA05021CBF2F
:1007D00063EA050362464FF00004A9E7DFF834D06E
:1007E000002103E00C4B5B58435004310B480C4B89
:1007F00042189A42F6D30B4A02E0002342F8043B27
:10080000094B9A42F9D302F02BF9FFF7D9FC00F01B
:100810000FF87047FCFF0020083F00080000002090
:100820006C0000206C000020D01B0020FEE70000C0
:100830002DE980489BB0234B00210C911A6C42F0AB
:1008400080521A641A6C02F080520C920C9A0B912E
:100850001D490A6822F4404242F400420A600A68D4
:1008600002F440420B920B9A9A6802F00C02042A9E
:1008700007D09A6802F00C02082A2DD15B685F024B
:100880002AD5104B1B680F4B9A6802F00C02082AFD
:1008900000F0D3810D4900220A600D4A14681868DF
:1008A000850100F1C4810B48586001230B6010687A
:1008B00004490B689C011DD413681B1A022BF8D93C
:1008C00018E000BF0038024000700040600047425E
:1008D0004C1B002019544107AB4B1A6842F480327C
:1008E0001A60AA4A106819688E03CCD41168091AD4
:1008F0006429F8D9A64B1A6802F00F02012A40F2C7
:100900009E81A14B9A6842F4E0529A609A6842F440
:1009100060429A609A6822F0F0029A601A68920126
:1009200000F19681984A9B4D936803F00C03042BC9
:1009300000F01F82082B00F01E82974B924C2B6018
:10094000A368964A964EC3F303130027D25C2B6824
:10095000D3402B6002F050FC0A97236B43F0010355
:100960002363236B03F001030A930A9B0997236B0C
:1009700043F002032363236B03F002030993099BF3
:100980000897236B43F004032363236B03F00403F2
:100990000893089B0797236B43F008032363236B9B
:1009A000169703F00803079301244FF00208079BF2
:1009B00017944FF4006315A930461593CDF8608065
:1009C00003F040F81697774F17944FF4807315A9EA
:1009D00030461593CDF8608003F034F8202315A934
:1009E0003846159316941794CDF8608003F02AF8D2
:1009F0004FF40013BB61169417946B4CCDF86080D4
:100A00004FF4007315A92046159303F01BF84FF01F
:100A10000073A361326912F4006F224603D1316979
:100A2000CF0540F1BF814FF4007393615F4C604B81
:100A300022689A4211D100235E4F236019200323BC
:100A40003B6002F0E1FB5C4A5C4B118892781980B4
:100A50009A7004233B6002F0CFFB594B594A196846
:100A60009142994604D91A68574B9A4240F24F86F0
:100A70004FF4C053032702244FF000080A2615A99B
:100A80004848159318971694CDF85C80199602F093
:100A9000D9FF4FF48063159312231693414818979A
:100AA000012315A91793199602F0CCFF364B5A6B08
:100AB00042F080025A63CDF834805A6C42F480428E
:100AC0005A645B6C4FF0A04203F480430D930D9B7E
:100AD000936B43F4001393633C4B4FF400221A6072
:100AE0003B4B4FF480121A6403F148002246196907
:100AF0009A82C1F30804490A002C18BF01310A4444
:100B000092B2511ED98218339842F0D1314C2678D6
:100B1000002E79D12B2231462F48FFF79BFD2F4A1B
:100B2000138956825B009BB2591E5B42D3812C4BCA
:100B300096821A602B4B118223B12B48AFF30080B1
:100B40002A4B1860284F00263B78F0B201338342CD
:100B500006F1010680F27C814FF0A04324491A6C13
:100B6000120C12048A4200F0F38522498A4200F0F6
:100B7000EF8501F580318A4200F0EA851E4B1B6843
:100B8000D8073CD53AE000BF003802404C1B00209B
:100B9000003C0240200000200024F400E83B000854
:100BA000000802400000024000040240FCFF002058
:100BB000B40AE8F5D00A0020163D0008CA0A002051
:100BC00004000108FFFF000800000908E40A0020F3
:100BD00024000020AE000020800100200000002042
:100BE000C40A002000000000E0090020DC09002009
:100BF0000000544F00003155F0ED00E000BEB14B55
:100C000008229A6001232370AF4B022201201A6050
:100C100002F0FAFAAD4AAE4B1188927819809A70B8
:100C2000AC4B1B780193002B40F08381FEE71068EA
:100C3000001B02287FF633AE5CE65B685AE60222B0
:100C40001A701B6803F00F0393427FF46BAE58E6F3
:100C50009A6822F0030242F002029A609E4A1468E7
:100C6000194641F28835986800F00C00082818D120
:100C70009A4B1A6802F00F02022A56D88B6823F4A6
:100C8000E05343F480538B608B6823F460438B60A4
:100C90008B6803F00C03042B08D0082B4ED090482F
:100CA00005E01068001BA842DDD93BE68D488E4B5D
:100CB0008E4A9B688E4CC3F303132168D35CD840E3
:100CC0008C4B18604FF47A73B0FBF3F00138B0F13D
:100CD000807FBFF427AE884A50608848F02380F8B0
:100CE0002330072500230F29936015603FF61AAEC5
:100CF000C268C2F30222A81A042802F1040528BF20
:100D00000420062D98BF1A464FF0010303FA00F3A2
:100D100003F1FF3388BF033A0B4093401B01774A2E
:100D2000DBB282F823302160FCE502221A701B68D6
:100D300003F00F0393427FF4F5AD9FE74A684B68D9
:100D4000496813F4800314BF66486548C1F38811ED
:100D500018BF002302F03F02A1FB0001FFF758FA81
:100D6000614B5B68C3F3014301335B00B0FBF3F0FD
:100D70009DE75C4BE2E55068516852684302C2F35C
:100D8000881201F03F014CBF564B554BB3FBF1F3BA
:100D90005343554A5268C2F3014201325200B3FB39
:100DA000F2F3CBE5A36141E6DFF86881544F21609F
:100DB0000120C8F8003002F027FA2022BA61D8F8E2
:100DC0000030B3F5FA7FFAD302F016FA4FF40013AD
:100DD000BB610023236033691B0534D54FF40061E8
:100DE000484802F0B9FD4FF48071464802F0B4FD66
:100DF0002021434802F0B0FD4FF40071424802F058
:100E0000ABFD394B1A6B22F001021A631A6B22F008
:100E100002021A631A6B22F004021A631A6B22F0A0
:100E200008021A63344B00221A605A609A60334AEF
:100E3000364B9360BFF34F8F1B6883F30888D9F854
:100E400000301847FEE73369DC057FF511AEC5E7D2
:100E500001F082FD0368984776E6062200F0D2BCD6
:100E6000072200F0CFBC082200F0CCBC092200F021
:100E7000C9BC0A2200F0C6BC0B2200F0C3BC0C2285
:100E800000F0C0BC0D2200F0BDBC091A89B2884236
:100E9000FBD9636862890EA802FB0131FFF740FBB2
:100EA000019B72E000241A4B1B78E0B201338342AD
:100EB0003FDB01F051FD436913B19DF838009847BD
:100EC0000134F0E700E100E0D00A0020133D000803
:100ED000CA0A0020AE0000204C1B0020003C02404B
:100EE0000024F40040787D0100380240E83B00080F
:100EF000180000202000002010E000E000ED00E0DD
:100F00000000024000080240000402400000010806
:100F1000E0090020E00A00209DF8380001F03CFDC7
:100F200014220021BA48FFF795FBBA4B9DF83C20EC
:100F30009A70B94B1C682378012B07D1B74B082254
:100F4000C3F88820BFF34F8FBFF36F8F628AA18AE7
:100F500092B289B28A4238BFE089A2EB01039BB208
:100F600038BF1B1A208938BF9BB298420BD2131A84
:100F70009BB29A4202D3228A9A4202D2E2899B1AF7
:100F80009BB2A3820346002B81D1A18A89B2CA18E1
:100F900092B2914202D8218A914202D2E1890A4456
:100FA00092B2A2822278012A02D19C4A0821916041
:100FB000002B3FF435AE9DF83930013B072B00F292
:100FC000258301A252F823F0190F0008E90F000849
:100FD000A50E0008CB160008E9160008011000084D
:100FE000D3150008011700089DF8380001F0D4FC63
:100FF000142200218648FFF72DFB01F0D1F898E775
:10100000844C9DF83C802378814F9DF8385043F004
:1010100001032370E37F6FF30003E377E37F6FF354
:101020008203E37794F820306FF3000384F82030D4
:1010300094F820306FF3820384F82030C8F3411312
:101040000021032B39610BD1754B1B68DD0700D5DF
:1010500000BE002002F0F4F8802002F0F1F868E70A
:1010600008F06003402B0BD16E4B002BF1D00FAA80
:1010700028463B61AFF3008000287FF45AAFE8E7D1
:1010800008F01F08B8F1010F00F0048227D3B8F16F
:10109000020FD9D1BDF840A05FFA8AF202F07F06B4
:1010A000052E0292D0D871004FFA8AFA4FEADA720E
:1010B00004EB01099144059399F8130004910392FC
:1010C00001F04AFC059B039A04998346002B00F02B
:1010D00025820028BDD00FAA00F10C010EE0202BC4
:1010E00010D19DF840300F2BB3D81C44E07801F0AC
:1010F00033FC0028ADD00FAA00F10C01284601F006
:10110000CFF8B9E7002B9FD19DF83D30092B9BD834
:1011100001A151F823F000BF7B14000869140008F6
:101120004910000855140008491000084111000832
:10113000E3120008491000087D1100089111000811
:101140000FAB93E8030087E8030000224FF0A041B3
:10115000BA60FA81BA81D1F800389DF83E0023F4D4
:10116000FE6343EA0013C1F800388020114602F004
:1011700069FB237843F002032370DAE663788DF885
:101180005430012315AA0FA9284601F03FF9D0E6F3
:101190009DF83E906378994533D06378F3B14FF072
:1011A000A0434FF00112C3F81C281F4A012300215D
:1011B000580100F1A0400133042BC0F8001B02F1DC
:1011C00020025181C0F800195183F1D1174BA67844
:1011D000102228461A8001F0DFFBA670B9F1000F3B
:1011E0000FD02378124E43F010036FF34513237092
:1011F0007388F31802930936029BB3421AD800F0A1
:10120000E3FF84F801900FA9284601F037F990E632
:10121000E409002080010020C40A002000E100E071
:10122000F0ED00E000000000501B0020C80A002084
:10123000FA3B000873780B2B03BF337896F803B0A2
:10124000F6184FF0010B7378042B06D0A54B1B68E2
:10125000DA077FF5F9AE00BEF6E6029BA3EB0608BF
:101260001FFA88F84FF0000A9F4B1B785FFA8AF745
:101270000133BB4213DB384601F06EFB4246836804
:10128000314628469847082828D9804526D3002289
:10129000D3B25B4509D33044B04211D80646924BD5
:1012A0001B7801339F42A7DDD0E7B1780B448F490B
:1012B00051FA83F30132D978FF29C7D1DF70E7E70C
:1012C0007378052B07D1B378894903F07F0201EBCE
:1012D0004202DB09D75433781E44DDE70AF1010AE4
:1012E000C2E7BDF83E00030A5A1EC0B20E2A3FF6FE
:1012F000B0AE01A151F822F03513000859130008CF
:101300007113000853100008531000083D14000822
:101310005913000853100008531000085310000818
:101320005310000853100008531000085310000811
:10133000431300086F4A12230FA9284601F066F8EC
:101340009AE66D4B002B3FF484AEAFF3008002466B
:1013500000283FF479AE02E0022B02D1674A53889D
:10136000EAE7674B002B3FF474AEAFF30080EEE783
:10137000C8B1032825D006283FF66BAE614B53F861
:1013800020402046FFF7BCF9C0B21F285E4928BFA5
:101390001F202246131BDBB2834209D212F8013B05
:1013A00021F8023FF6E7594B1A88574B01205A8023
:1013B000431C554A5B0043F44073138003F0FE0363
:1013C000BAE7534A504E07CA11AB83E807000DF144
:1013D000430400224F4B03F110080DF1540C474613
:1013E00018685968E646AEE8030008334345F446FA
:1013F000F6D163781AA903F00F030B4406EB020E33
:1014000013F8143CAEF80430424B0DF15408186840
:101410005968C446ACE803000833BB42E046F6D145
:1014200014F8013F1AA901EB1313043213F8143C0A
:10143000AEF80230302ACDD11820B9E7364B002B58
:101440003FF407AEAFF30080024600283FF401AE40
:10145000037871E7BDF83E30012B7FF4FAAD2378B5
:1014600043F008032370CEE6BDF83E30012B7FF435
:10147000F0AD23786FF3C303F4E7227812F0080F7E
:10148000C2F3401314BF022200221343ADF85430BC
:10149000022377E69DF840300F2B3FF6DAAD1C446F
:1014A000E07801F059FA00283FF4D3AD00F10C01C7
:1014B0000FAA284600F0F4FE00287FF43AAD9DF80C
:1014C0003C3013F060037FF4C4AD9DF83D20A2F1E1
:1014D0000A0101293FF6BDAD0A2A3B617FF493AEB4
:1014E0004DE600BFF0ED00E0E009002080010020A3
:1014F000930100203A3C000800000000FA3B00087D
:10150000000000007C3C00086C000020F83B000854
:10151000107AFF1FD83B0008000000009DF83D3006
:10152000012B03D03ED3032B7FF48EADBDF83E00DC
:1015300030BB012B48D17D4B0B4413441833DB796E
:101540009B071DD536B27601BAF1000F06F1A04611
:101550002DDAD6F8003923F40013C6F80039D6F88E
:10156000003943F08053C6F80039704B19440A44DF
:10157000D37F6FF34103D377D37F6FF30003D37728
:10158000BBF1000F3FF4D5AC0FAA0BF10C012846BC
:1015900000F086FE00233B6194F82030DE073FF523
:1015A000C8AC30E699F81F30C3F340036EE7D6F8B5
:1015B000003B23F40013C6F8003BD6F8003B43F091
:1015C0008053C6F8003BD0E70299284600F074FE2D
:1015D000D6E79DF83C40554B04F07F05E10903EB4D
:1015E00045030B44D87F6FF30000D877D87F6FF3A3
:1015F0008200D877002D53D14D4C9DF83860237868
:10160000109FB1EBD31F214615D037B1494B1B6852
:10161000DA077FF58EAC00BE8BE4474B13B1304642
:10162000AFF300802369002B3FF483AC404A0221D2
:10163000304698477DE494F90030002B07DBA06822
:1016400000283FF476AC3A463C49FEF769FFA268B1
:10165000E3893A443B44A260E2889BB29A42E38128
:1016600001D03F2F18D8236973B994F90030002BAB
:101670004FF000031A46B4BF29468021304600F0DF
:1016800035FE0028C2D054E4294A0121304698474B
:1016900000283FF4DFACE8E7304600F08DFEF0E7CD
:1016A000D87C01F059F938B9224B1B68DC077FF56B
:1016B000B7AA00BEFFF7B4BA0569109B9DF83D209C
:1016C0009DF838002146A84733E4184B1A78D00714
:1016D0007FF52FAC1A4A002A3FF42BAC1878C0F3E0
:1016E000C000AFF3008024E4104B1B78D9077FF5CE
:1016F00020AC144B002B3FF41CACAFF3008018E47B
:101700000F9B002B3FF415AC1098984711E40E4B3B
:1017100022689A424FF000033FF45CAB0B498A42C7
:101720007FF442AB2360FFF7A3B900BF8001002024
:10173000E4090020F0ED00E000000000840A002031
:101740000000000000000000EF6926F0EF6916F0CD
:10175000D3F8042842F00202C3F80428DA6842F001
:101760004002DA609A6B42F480329A631A6942F05E
:1017700001021A614FF0A0431A69D107FCD44FF05F
:10178000A0421369002BFCDAD36823F4705343F4AE
:10179000A053D3602A683B4B9A423FF65EAB3A4B6C
:1017A0009A423FF65DAB394B9A423FF65CABA3F5EC
:1017B0000613A3F58E539A423FF658ABA3F5DB13FD
:1017C000A3F5BA539A423FF654ABA3F5B713A3F56A
:1017D00058739A423FF650ABA3F59E13A3F5B1534D
:1017E0009A423FF64CABA3F59213A3F578639A4265
:1017F0003FF648ABA3F57423A3F510739A428CBF50
:101800000E220F224FF0A043D96821F4705141EA13
:101810008222DA60D3F8002842F00302C3F80028DD
:10182000D3F8002E22F00F02C3F8002EDA6842F03F
:101830000702DA60DA6822F0C04242F08042DA60E1
:101840001A6822F0D00242F0C0021A60D3F80028D1
:1018500042F00402C3F800285A6959690A435A61E0
:101860005A6859680A435A60094A9A619A6842F06C
:1018700001029A60D3F8042822F00202C3F8042877
:10188000FFF7BDB9FF47E801DF9DA301FF356E01FA
:1018900016380080402200210148FEF7DBBE00BF61
:1018A000E81A0020402200210148FEF7D3BE00BF05
:1018B000E81A00202DE9F04FB24C94F83050012D79
:1018C00097B006460A469B4600F0748120D3032D4C
:1018D00000F0A48294F83030022B1DD194F82E1021
:1018E000A94B01F07F0203EB420303EBD113183342
:1018F000DB799A0710D4A368A26B934240F2B482BA
:10190000207BC00900F0B082304600F0D5FC03E037
:1019100094F82F508D4201D0012013E01F2B03D1EA
:1019200022689A4B9A4210D0042394F82E1084F81F
:101930003030304600F0C0FC94F82F10304600F0F4
:10194000BBFC002017B0BDE8F08F914B2362012251
:10195000636884F83020E27B63620023A36284F82A
:101960002C30A36302F0FD03A5686563282B1FD10B
:10197000E18A49BA89B225B9C1B9022384F8303065
:10198000A8E7282A0DD1237BDB090FD0D1B1B5FB05
:10199000F1F159B1282A40F02282304601F0FAFCD8
:1019A00098E72A2AF2D1237BDB09EFD002210AE053
:1019B000002D00F0BA82237BDB0940F08782B5F569
:1019C000805F04D90121304601F0BEFC82E7714AF4
:1019D000ABB200F08BFC00287FF47CAF6E4B1B6831
:1019E000DC07AED500BEADE76A4B6C484FF4003261
:1019F00083E805000823A268002AE3D0934228BFA9
:101A0000134694F82E10634A63639BB23046E0E7B6
:101A100000220F920D9208228DF83720604A0E9214
:101A200002220DAB8DF83C20ADF83E2093E8070074
:101A3000584D0C2385E80700DDE7242200210DA87E
:101A4000FEF708FE80234FF020358DF83530102248
:101A50000223202111A88DF836308DF837300F95EC
:101A60001095FEF7F7FD4F4A159510685168127AE8
:101A700006AB03C31A704C4B09AA03F1080E1746B4
:101A800018685968154603C5083373452A46F7D1C7
:101A9000998818689B792860A980AB7116AD434B73
:101AA00045F8443D06A8FEF72BFE06A902460FA8FE
:101AB000FEF736FD3846FEF723FE3946024611A8EA
:101AC000FEF72EFD2846FEF71BFE294602460DAD09
:101AD00015A8FEF725FD0FCD2E4F0FC70FCD0FC751
:101AE0002B683B60242386E703238DF834309DF870
:101AF0003630607B002203F0800362F3C7138DF859
:101B000036302B4B8DF835208DF8372073B1AFF37D
:101B100000809DF8363080F0010060F3C7138DF827
:101B200036301C4B0D9A1A60042364E70120F0E75D
:101B3000122200210DA8FEF78DFD94F83C0094F8C8
:101B40003D1094F83E208DF84010F0238DF834308D
:101B50004FF0000360F303038DF836300A238DF84D
:101B60003B308DF841200DAD0FCD0A4F0FC72B68CC
:101B70003B80002384F83C3084F83D3084F83E30CC
:101B8000122338E7E81A0020800100205553424311
:101B900055534253E80A0020F0ED00E0000101082F
:101BA00000010109983C0008A13C0008312E3000DA
:101BB00000000000E17B282907D1A26B1A44636B67
:101BC000A2639A42BFF4D9AEE7E62A2940F00B811E
:101BD000AC4D4FF00008C345A5F1200210D8A26B10
:101BE000B8F1000F5A44A26380F2F580032384F811
:101BF0003C30332384F83D30002384F83E30E1E666
:101C000055F8201CA048814278D155F81C1C9F4BE8
:101C1000994273D1D5F8DC119D4881426ED192680A
:101C200022F4FF5222F01E029204920CB2F5005FE1
:101C300064D155F8042C974B9A425FD155F8143C67
:101C40000193954A55F8103C02931169002904DA72
:101C50009249934B5160536012699248DFF864E2F5
:101C60004FF00067002250F82290019B09EB07011A
:101C70008B4248D28C494FF0010E885C01F802E09B
:101C8000002A46D018B93946C81B814547D8DFF825
:101C90003892814F4FF0000A029B534503DD99F8BB
:101CA0001810012964D17C490A6942F000420A6196
:101CB00055F8082C12B37D490F68BA42084607D080
:101CC00044F2630E724500D80FB14FF0FF320A6044
:101CD00055F80C7C44F2630297420FD800EBD70012
:101CE00007F0070E012202FA0EF2477AD2B23A4208
:101CF00004D13A4342724A6801324A6008F50078DA
:101D000005F5007567E70132182A02D071450F46C4
:101D1000A9D9674A1268D307B9D500BEB7E751F809
:101D2000040B0130B0D05C49086920F440700861B0
:101D3000086940F400700861086920F0F800086143
:101D4000086940F0020040EAC2020A610A6942F4EE
:101D500080320A614FF0FF3001F09EFD3A4603E009
:101D600052F8041B0131D4D1D11B8945F8D88EE734
:101D7000012055F80A1089F818004CF250300391F0
:101D800001F08AFDB8B9386920F4407038613869CB
:101D900040F400703861386940F001003861019BFF
:101DA000039943F80A104CF2503001F075FD39697F
:101DB00021F001013961002189F8181000287FF411
:101DC00072AF4FF0FF3001F067FD00287FF46BAF7A
:101DD0000AF1040A60E7636B9A42BFF4CEAD304665
:101DE00001F07AFC76E5A26B1344227BA363D2094F
:101DF00009D11E2907D0052184F83C10202184F840
:101E00003D1084F83E20626B9342BFF4B6AD284B80
:101E10001B68D9077FF580AD00BE5BE594F82E10F6
:101E200091427FF479AD0D2B7FF476ADE37B282BC7
:101E300009D02A2B14D01F4B53B104F10F01607B42
:101E4000AFF3008004E01C4B13B1607BAFF3008064
:101E5000002384F83030194A94F82F101F23D5E559
:101E6000607B00F05BF9F3E79B1AA362032384F81D
:101E70003030134A0D23304600F038FA00283FF482
:101E8000ADAD49E5080B00205546320A57515D9E1D
:101E9000306FB10A575A7557003C0240230167451D
:101EA000AB89EFCDB03C0008C4090020AC01002094
:101EB000F0ED00E00000000000000000E81A002043
:101EC000081B0020FFFF07082C1B00201A2A3FF4E4
:101ED0000BAE21D8032A3FF42BAE122A3FF4ADAD4E
:101EE000002A3FF46FAD94F83C1000297FF46AADEE
:101EF0001E2A1FBF052284F83C20ABB220220EBF51
:101F00000B4684F83D2084F83E10002B7FF473AD1F
:101F1000002D7FF457AD30E5232A3FF479AD252A13
:101F20003FF462AD1B2ADED14CE51A2A3FF4DCAD4A
:101F300009D8032A3FF4FCAD122A3FF47EAD002AF3
:101F40003FF41BADCFE7232A3FF462AD252A3FF4CF
:101F50004BAD1B2A3FF411ADC5E700BF73B5064674
:101F6000154609B101202DE0137803F07F02022A03
:101F700043D16C78012C40D16A88002A3DD13B4A7C
:101F8000AD8892F83030042BE9B202D100F094F918
:101F9000E8E792F82E408C4216D1022BE2D1916BE9
:101FA00093685B1A9362032382F8303021460D2335
:101FB000203200F09BF90028D4D12D4B1B68DB07A1
:101FC00052D500BE02B070BD92F82F208A42C9D10E
:101FD000002BC7D1274A01F07F0302EB4303C5F36F
:101FE000C0152B441833DA79D007BBD4DB799A07B4
:101FF000B8D41F231D4A3046DBE703F06003202BD3
:1020000032D16B78FE2B15D0FF2B2DD16B885BBBAB
:10201000EB884BBB154A2946304682F83030536373
:10202000936382F83C3082F83D3082F83E3000F015
:1020300025FA97E76B88BBB9EB88012B14D18DF893
:1020400007300D4B1BB1AFF300808DF807009DF8F2
:1020500007304BB102AA013B02F8013D294601239A
:10206000304600F0D3F97DE70020ABE7E81A002006
:10207000F0ED00E0800100200000000073B54B7916
:10208000082B054602D0002002B070BD8B79062BCC
:10209000F9D1CB79502BF6D1162A05D8174B1B68EE
:1020A000D907F0D500BEEEE7154C8B7884F82D30BB
:1020B00004F12E030E78019304F12F030093022301
:1020C0001A46314400F0A2FA28B90C4B1B68DA0713
:1020D000D9D500BED8E7002384F8303022461F232C
:1020E00094F82F10284600F001F920B9034B1B6823
:1020F000DB0700D500BE1720C6E700BFF0ED00E00B
:10210000E81A00208C2200210148FEF7A3BA00BF84
:10211000F80900200020FFF7F5BF000010B5194CAA
:10212000227A32B1184B04221A60BDE8104001F047
:1021300063B823682BB3154B197861B11A70124B31
:10214000032219201A6001F05FF8114A114B11881F
:10215000927819809A70626823689A4211D30A4B68
:1021600004221A6001F048F8BFF34F8F0A490B4B65
:10217000CA6802F4E0621343CB60BFF34F8F00BF25
:10218000FDE710BDAC010020D00A00201C0000209B
:10219000163D0008CA0A002000ED00E00400FA0520
:1021A00008B5064B022201201A6001F02DF8044AFE
:1021B000044B1188927819809A7008BDD00A0020CB
:1021C000133D0008CA0A002008B5064B012205206D
:1021D0001A6001F019F8044A044B118892781980AA
:1021E0009A7008BDD00A0020103D0008CA0A0020DD
:1021F000034B1B68DB0700D500BE0020704700BF03
:10220000F0ED00E070B50446164652B90378012B94
:1022100007D1224B0822C3F88820BFF34F8FBFF3AA
:102220006F8F658AA28AADB292B29542A5EB020386
:1022300038BFE2899BB238BF9B1A228938BF9BB254
:102240009A4201D1237B1BB32B4693421DD2628954
:10225000606802FB0300FEF763F96B1C9BB29D42B2
:1022600002D8228A9A4202D2E28913449BB2638244
:102270008EB901262378012B02D1084B08229A60DF
:102280004EB9BDE87040FFF7B3BF9B1A9BB2DCE7C5
:10229000002EF6D1EEE7012070BD00BF00E100E0A6
:1022A00010B4044B0C681C610B685DF8044B0021F2
:1022B000184700BFE409002010B50B4C01F07F0364
:1022C00004EB430404EBD1141834E3799B070AD4DC
:1022D000084600F0B5FFE37943F00203E371E379C8
:1022E00043F00103E37110BD8001002038B50846BA
:1022F000144C114600F07F0204EB420404EBD014AE
:102300001834E279D50707D50F4B1B68DA0701D4DB
:10231000002038BD00BEFBE7E57945F00105E57119
:102320001A4601F08FFA60B9E37960F30003E371B4
:10233000E37960F38203E371034B1B68DB07E7D5A6
:1023400000BE38BD80010020F0ED00E038B5154D2D
:10235000AC788C422A4602D06D788D421BD15278DF
:102360008A4209D1104A0AB9012038BDDAB20F49B0
:102370000020AFF30080F7E78C42F5D140230C4AF0
:102380002146FFF7B3FF0028EED10A4B1B68DA079E
:1023900006D500BE38BD074B1B68DB0700D500BE65
:1023A000002038BDF809002000000000000A0020CD
:1023B000400A0020F0ED00E070B51249CB898C890D
:1023C000E41AA4B291F90030402C28BF4024002B1D
:1023D00005460DDA9CB1224689680B48FEF7A0F845
:1023E000094A802123462846BDE87040FFF77EBF9A
:1023F000002C054A0ABF214600212246F2E780212F
:102400002246EFE7E4090020840A0020F8B5194DC0
:102410000C46074608684968AA602E4603C6002194
:10242000E981E188994228BF1946A981E3887BB1F7
:1024300041B13AB9104B1B68DA0701D40020F8BD4E
:1024400000BEFBE73846FFF7B7FF68B10120F8BDD3
:1024500094F90020002AA8BF80211A46B8BF0021A5
:102460003846FFF743FFF0E7034B1B68DB07E5D572
:1024700000BEF8BDE4090020F0ED00E030B40B4AE6
:1024800005460C4608684968134603C30023936059
:10249000D381938194F900209A4228461A46ACBF12
:1024A0008021194630BCFFF721BF00BFE40900209E
:1024B0002DE9F0411446127802F01F05012D064661
:1024C0000B4602D00020BDE8F0814749A78891F86B
:1024D00000E0FFB2BE450F46F4D112F060021FD0FB
:1024E000202AEFD16278013A0A2AEBD801A151F8EB
:1024F00022F000BF5B250008A9250008B3250008CD
:10250000C5240008C5240008C5240008C524000807
:10251000C52400087925000887250008BD25000886
:1025200013B10120BDE8F0816378062BCAD163881E
:102530001B0A212B09D1D1F88820002AC2D02146BC
:102540001378BDE8F041FFF761BF222BBAD1274ACB
:10255000CB882146FFF75AFFE3E7002BE1D16388E0
:10256000DBB2002B38D0E288012A35D9204A3B72F1
:10257000012321463046EDE7002BD2D1E388402BE2
:10258000A0D81C4AF5E7002BCBD161881A4A090A6A
:10259000797122B11846AFF30080002892D021460D
:1025A0003046FFF76BFFBCE7002BBAD10123134A7B
:1025B000DFE7002BB5D10123114ADAE7002BEED07B
:1025C000022BAED161880F4BC9B23971002BA8D054
:1025D0000020AFF30080A4E70B4B1B68DB077FF5FF
:1025E00071AF00BE6EE700BFF80900204C3D000847
:1025F000000A0020400A002000000000FD09002021
:10260000FC09002000000000F0ED00E02DE9F04F93
:1026100085B099460E9B0293DFF8E4A10F9B754F9E
:10262000039393464FF00008D84501DB01200EE0EC
:102630004B78052B04D1CB7803F003034B4509D02D
:102640006C4B186810F0010001D000BE002005B0EE
:10265000BDE8F08F8D7805F07F00052809D9654B1E
:102660001B68D90700D500BE05B0BDE8F04FFFF7E5
:10267000BFBD614B8C889B78B9F1020FC4F30A048B
:102680000BD06FD8B9F1010F10D1022B40F2FF33FC
:1026900008BF4FF480639C420EE0022B0BD1B4F5CF
:1026A000007F0AD03B68D80700D500BEFFF7A0FD29
:1026B00000284CD1D8E7402CF4D80328CFD86DB2ED
:1026C0004FEAD57E430003EB0E020AEB0212002D07
:1026D00054818E79167304F103064FEA9606B2B25E
:1026E00001924FF0A04543DB520017326C6A92B260
:1026F000944206D2414C24881444B4F5A07FAEDC49
:102700006A62440104F1A044CD78D4F8002B7344EC
:102710000AEB031305F003063546012E42EA864212
:102720005E8942F4004242EA060214BF4FF080552F
:10273000002515434FF0A043C4F8005BD3F81C28D4
:1027400000F110040120A0401043C3F81C088B784E
:102750001A064CBF039A029A13700B7808F101080D
:10276000194461E7022B0CBF4FF48063402392E7CA
:10277000DFF888E06B6ABEF800C00CEB06021A4472
:10278000B2F5A07F3FF66BAF019B63449AB2830022
:10279000AEF8002003F1A043C2F5A07242EA06465B
:1027A000C3F8006191F803E0460106F1A0460EF07F
:1027B0000302D6F8003992040EF0030E42F40042F0
:1027C00042EA8052BEF1010F44EA030414BF4FF005
:1027D000805E4FF0000E224342EA0E02C6F8002946
:1027E000D5F81C28012303FA00F01043C5F81C0893
:1027F000ADE700BFF0ED00E080010020C80A002036
:10280000501B00202DE9F3414B79032B07460E4660
:1028100004D00024204602B0BDE8F0810C79C4EB5E
:10282000C4041234A4B2A24205D2234B1B68DA07B7
:10283000EFD500BEEDE7214D6A78A846002AF4D115
:1028400091F800E0714491F801C0BCF1210FECD186
:10285000C5F8881016F80EE0327905F1010C023542
:10286000CDF804C000957144FFF7D0FE0028DCD0FD
:10287000B37998F80210012B04BFF37988F803307C
:10288000012388F80430B37888F80030D8F888300D
:10289000B3F80730A8F806300029BBD04023084A17
:1028A0003846FFF723FD0028B4D1034B1B68DB0734
:1028B000B0D500BEAEE700BFF0ED00E0F8090020A3
:1028C000400A00201FB54378023B0A46032B12D86A
:1028D000DFE803F00224131B1D4B19786FF300018E
:1028E0001970197800246FF3410119705C70197820
:1028F00064F382011970014623E0154B1978C9076A
:1029000023D5197841F00401F4E711490B78DC076D
:102910001BD50B786FF382030B70ECE70C490B7837
:102920005B0712D50B786FF382030B7000230193C2
:102930000293039303788DF8043005238DF8053056
:1029400001A9044B1868FFF75DFC04B010BD00BF7F
:1029500080010020C40A00200B4B63B10B4B1B7895
:10296000984206D20A4B1B6800EB400003EBC00004
:102970007047C01AC0B2012803D800EB4000054BD5
:10298000F4E70020704700BF00000000E0090020CD
:10299000DC0900201C3D000870B5124D06460024DD
:1029A0002B78E0B20133834204F1010413DA0E4CB8
:1029B0002B2200212046FDF74DFE1022FF21E01CB6
:1029C000FDF748FE4FF0FF33C4F81330C4F817305A
:1029D000C4F81B3070BDFFF7BFFF4368304698470F
:1029E000DEE700BFE009002080010020F7B50446C3
:1029F000900803460D464FF6FF76013B9BB2B3426B
:102A00000ED112F0030201EB800107D002A80023CF
:102A100040F8043DFDF784FD019B236003B0F0BD49
:102A200055F8047B2760E8E7F7B594082346054688
:102A30004FF6FF76013B9BB2B3420CD112F003027A
:102A400000EB840005D00B6802A941F8043DFDF7B6
:102A500067FD03B0F0BD0F6845F8047BEAE70000AE
:102A6000054BD3F8882042F47002C3F888204FF059
:102A700000629A60704700BF00ED00E07047000000
:102A80002DE9F04F4FF0A0448BB06669A3691E405A
:102A9000F30442D54FF48053636180220021A048A3
:102AA000FDF7D8FD9F4A00231370D4F8002822F4C4
:102AB000FE62C4F800285A0102F1A0420133D2F8A4
:102AC000001B042B41F00061C2F8001BF3D14FF052
:102AD000A0434FF00112C3F81C280922C3F81428A0
:102AE000C3F8102837225A628F4A102111808F4A6A
:102AF0009A62D3F8002922F00302C3F80029884A19
:102B0000402151815183D3F8102B42F0C042C3F8C9
:102B1000102B9A6942F440229A61B70419D54FF0FC
:102B2000A0434FF400525A61D3F80838C3F341036D
:102B3000002B5AD09D1E6B426B410022012107A839
:102B40000792089209928DF81D108DF82030FFF73A
:102B5000B9FE340507D54FF0A0434FF400625A6127
:102B6000042000F0D1FB002E07DA4FF0A0434FF015
:102B700000425A61052000F0C7FB70070AD54FF0EC
:102B8000A0431C465D6815F0040F02D0022000F03F
:102B9000BBFB656031070AD54FF0A04308225A609D
:102BA0009A6922F008029A61032000F0ADFBF20658
:102BB0004AD54FF0A0439A6922F010029A6102931D
:102BC000029B1B6A03F00F02C3F30A17C3F34343CC
:102BD000013B0192052B00F2AF81DFE813F00E00FC
:102BE000B1008F019600AD0108000223A5E7504A0D
:102BF000504B1168196012685A60029B5A6812F0B3
:102C00001002DDD147480378C3B145494B894C8D4B
:102C1000002B38BF0023A34238BF2346B1F84A40F7
:102C2000B1F86A10A34238BF23468B4238BF0B4627
:102C30009B085B00029917334B6202704FF0A04271
:102C4000936943F010039361370300F17C817603AD
:102C500058D5DFF8CCB0DFF8D8A04FF000094FF01E
:102C6000A0435FFA89F1D3F8183823FA09F3D8079B
:102C70003FD5314B03EB491301939B68DA070FD51E
:102C8000019B01229A60B9F1000F40F0AD812B4BFE
:102C90005B88002B00F0A8811146484600F052FDE9
:102CA000019B9B681B0624D54FF0A0430122D3F85B
:102CB000343802FA09F21A4203921AD0019B1B69B6
:102CC000C3F3C943049300230293BDF80830049A68
:102CD0009342C0F09F81019B1B69C3F3120343B968
:102CE0004FF0A0420399D2F8343823EA0103C2F826
:102CF000343809F10109B9F1040F0BF1200B0AF581
:102D0000805AACD10BB0BDE8F08F019B5B0103F1A1
:102D1000A043D3F8102B42F0C042C3F8102B6CE74D
:102D2000501B0020D40A0020C80A002030011000E7
:102D300000100050D80A002000090050281B002075
:102D4000019BAE495A018B185D68002D00F0AC80E4
:102D5000002F39D0B5F80EB0297A2A8ADFF8A4926C
:102D6000AB881FFA8BFB92B2002949D19345ABEB9C
:102D7000020438BF6A89DFF88C92A4B23CBFA41A5F
:102D8000A4B21C1BA4B2BC4228BF3C46D846434553
:102D900041D9A3EB08039BB2EA8829689C4202FB55
:102DA00008183DD814FB02F292B249464046FFF79C
:102DB0003BFE5C44A4B2A34502D8AB89A34202D235
:102DC0006B891C44A4B2EC81019B8C495B01CA183D
:102DD0005089B8427FF611AF03F1A043D3F8100B2E
:102DE00013891B1A9BB21381019A002A7FF405AF45
:102DF000834A10881B1A0B81BDF804301380FCE64F
:102E00009F4224BFE888F91A1C4626BF00FB01999F
:102E100093463C46BAE7A8EB03081FFA88F8B6E7E2
:102E200013FB02FAE31A13FB02F31FFA8AFA9BB2AE
:102E300003932AF003039BB21A4649464046049383
:102E4000FFF7F2FD1AF0030A2CD0049BCAF1040E1E
:102E50009844039B1FFA8EFE9E4528BF9E46A3EB17
:102E60000E0293B20AAA0393D9F8003042F80C3D3F
:102E70000023995C08F8031001339A45F9D12868BA
:102E80009244431E0AEB0E02924506D17044039B06
:102E9000002B8ED01A46494689E71AF8011B03F821
:102EA000011FF1E72868F2E78858DFF858C1BC082D
:102EB000234605464FF6FF7E013B9BB2734518D172
:102EC00017F0030E00EB84050FD04E4BBEF1010F3F
:102ED0001B6800F8243008D0BEF1030F4FEA13201E
:102EE00008BF1B0C687008BFAB708B583B448B50FD
:102EF0006AE7DCF8008045F8048BDDE7019B002BD6
:102F00007FF47BAE002F7FF478AE029B3E4A1B6CB1
:102F100093427FF672AE029BD3F8083B48F2200240
:102F200013423FF46AAE13F0200F029A14BF21231C
:102F30000123C2F8083B60E6344B1B68DB077FF5D2
:102F40005CAE00BE59E62D4FDFF8B480DFF8B890D4
:102F500000244FF0A04204F11001D2F81838CB4001
:102F6000DD075FFA84FA31D56501AB18D3F8083B69
:102F700018071AD519042DD5126C48F208034A45D2
:102F800098BF082305F1A042C2F8083B002307932D
:102F900006238DF81D301E4B93E803000AAB03E9AE
:102FA0000300012107A8FFF78DFC05F1A043D3F82A
:102FB000082BD2070AD50122C3F8082B64B9B8F848
:102FC00000304BB12146204600F0BCFB0134042CFC
:102FD000BFD13CE60823D5E73D4401232A89514669
:102FE000002000F09FF9F1E70123BBF8182041F021
:102FF0008001002000F096F952E600BF501B00202F
:10300000281B0020001000500930544FF0ED00E064
:10301000D80A0020019BBBF81A201B695F499BB2AC
:103020009A4228BF1A46019B9B6901EA83039A4290
:103030003FF651AEDBF81470002F00F08880F8895D
:103040003E8A80B2B6B2B04238BF7B89A0EB06059B
:10305000ADB238BFED1ABB8838BFADB2AB420DD2AE
:10306000C11A89B2884202D3B889884202D27889CB
:10307000091A89B239823E8A1D46B6B29DB195427F
:1030800028BF1546B3421ED99B1B9BB2FA883968EC
:103090009D4202FB061619D815FB02F292B2314688
:1030A0005046FFF7A3FC3B8A9BB21D44ADB2AB4236
:1030B00002D8BB89AB4202D27B891D44ADB23D82AE
:1030C000029B013300E6F61AB6B2DBE713FB02F807
:1030D0001FFA88F8EC1A28F003039BB214FB02F4E1
:1030E00031461A4650460593FFF780FC18F0030856
:1030F000A4B22AD0C8F1040080B2059BA04228BF28
:1031000020461E44241A00230793A4B20DF11B038A
:1031100006EB0802B2420ED139680AAB9844A8F116
:103120000D08084481420BD1079BCAF80030002CDF
:10313000B9D02246B4E716F8011B03F8011FE9E7EE
:1031400011F8013B08F8013FECE73968EFE7DBF8DD
:10315000101095082B460846013B9BB24FF6FF74B2
:10316000A34216D112F0030401EB85000BD0012C11
:1031700011F8253005D0032C038804BF817843EA79
:103180000143CAF80030DBF810301A44CBF81020A5
:1031900096E750F8044BCAF80040DDE7FCFF030057
:1031A000124A136801331360114B1B68E3B1022B01
:1031B00002D9032B0FD0704713681268DBB2D20517
:1031C00044BFDB43DBB20B4A13B12023936170474A
:1031D0004FF40013FAE7136813F0010F054B14BF07
:1031E00020224FF400129A61704700BFE00A0020CD
:1031F000D00A002000000240024A136823F00103B5
:103200001360704710E000E00A4B4FF47A721B68BD
:10321000B3FBF2F358430138B0F1807F09D2064B7B
:10322000064A5860F02182F8231000229A60072293
:103230001A6070472000002010E000E000ED00E080
:1032400030B510F0800F00F07F0423B22CD02C4A50
:1032500024B1590150185558002D12DB5B01D1588B
:1032600041F00261D1504FF0A0431A6942EA841440
:103270001C611A6942F020021A611A699406FCD492
:1032800030BD535843F00063535083685B06FCD550
:10329000535843F0804343F40013535083689D0711
:1032A000FCD502238360DEE7164A24B15901541885
:1032B0005058002805DB5B01D15841F40011D15072
:1032C00030BD4FF0A043D3F8040840F40070C3F8B9
:1032D000040858690006FCD5535843F0804343F472
:1032E00000135350A3689B07FCD502234FF0A04264
:1032F000A360D2F8043843F48063C2F8043830BDC8
:1033000000090050000B00501FB50023019301215C
:103310008DF8050001A802930393FFF7D3FA05B0D7
:103320005DF804FB1FB5002401948DF8040007200C
:1033300002948DF805008DF8081001A81946039233
:10334000FFF7C0FA04B010BD30B4114B022483F86B
:103350002C109A6B996883F8304093F83C408A1A95
:103360009A623CB9052583F83C50202583F83D50EE
:1033700083F83E4051B14AB11A7BD20914BF93F889
:103380002E1093F82F1030BCFEF796BF30BC70475C
:10339000E81A00202DE9F04FC34FFB8A85B05BBAD5
:1033A0009BB2009013B1BD68B5FBF3F3BA6BD7F8CD
:1033B0001160BE489DB2BB68A3EB020ABAF5805FFC
:1033C00028BF4FF4805A34BA0021B2FBF5F605FB52
:1033D00016255246FDF73EF9002D40F04181264466
:1033E000B34CA946CA45A4F1200513D8B9F1000F82
:1033F00080F23D81032387F83C300098332387F81F
:103400003D300121002387F83E3005B0BDE8F04F84
:10341000FFF79ABF4FF4007200212846FDF71AF912
:10342000D6B9A44B03F1380E186859682A4603C26E
:10343000083373451546F7D118689B889380552348
:10344000106084F8DE31AA2384F8DF31013609F5F3
:10345000007904F50074C5E7B6F5017F40D8701E09
:10346000B0F5817F28BF6FF481709349039128BF25
:103470003018020202F58073B1F846E00193A5EB23
:10348000420302930EF1010E13464FF0000B7345F9
:1034900003F10108029934BFC446DC4621F813C089
:1034A000019988454346F2D148B9F82304F8203CF5
:1034B000FF2304F81F3C4FF6FF7324F81E3C002046
:1034C0004FF6FF7E039B0344DB8A9A4204D89B1A83
:1034D000FF2B98BF25F813E018304828F2D1B5E744
:1034E000B6F5027F58D840F205239E42AED1734B09
:1034F000A4F1150120201A78002A46D001332A7041
:103500000135A942F7D1282304F8153C6C4B6A4ACF
:103510001B681B0A5B02029304F1600301934FF0E6
:10352000200B234640F2EF1E03F10B01B2F814808A
:1035300003911546194695F800C0BCF1000F26D03E
:10354000013581F800C0039801318142F3D14FF079
:103550006401597345F2D141198259824FF000013B
:10356000998245F2D1411983D168A3F80EE0A3F8FE
:1035700016E0A3F81A8069B11169D9610199203365
:10358000994202F11802CFD160E72870B8E781F8BC
:1035900000B0D8E70299F0E74A4B9E423FF656AF9B
:1035A000454A6FF402717118A6F20720002396466F
:1035B000B2F814C0844503D8B2F816C0844505D2C9
:1035C0000133032B02F11802F2D10223182202FB6D
:1035D00003EE022BBEF81420A1EB020101F102025E
:1035E00012D05102DEF810209142BFF42FAF521AD0
:1035F000DEF80C30B2F5007F28BF4FF4007219449A
:103600002846FCF78DFF21E72D4B01F5002101F540
:1036100081711B6809029942BFF418AF2A4844F827
:10362000200C00F114401B0A00F52C1000F60230AB
:1036300044F8083C4FF4005344F81C0C44F80C2C9C
:10364000224844F8183C4FF48072214BC4F8DC0146
:1036500044F8141C44F8102C44F8043C2046D0E7ED
:103660001C4B1B68DA077FF5C5AE00BEC2E609D168
:1036700097F82E1000984B464A4605B0BDE8F04F2B
:10368000FFF750BE1FFA89F3084A97F82E100098EA
:10369000FEF72CFE20B90F4B1B68DB0700D500BEE0
:1036A00005B0BDE8F08F00BFE81A0020E80A00204E
:1036B000080B00206E3D000824000020993D000802
:1036C000E40A0020080101005546320A306FB10AB1
:1036D000575A7557F0ED00E038B5164B164C0546B5
:1036E0008BB1607BAFF3008068B9072384F83C306E
:1036F000272384F83E0084F83D3028460121BDE8A8
:103700003840FFF721BEA26BA36894F82F109B1AD4
:10371000B3F5805F28BF4FF480539BB2074A284619
:10372000FEF7E4FD20B9064B1B68DB0700D500BEA1
:1037300038BD00BF00000000E81A0020E80A0020A1
:10374000F0ED00E070B560B93C4B3D4D03EB01136B
:1037500035F811405B89A34228BF2346E41A25F8B7
:10376000114004B2640101294FEAC24204F1A044AD
:1037700031D11A43C4F81029D4F8002942F0044288
:10378000C4F80029D4F8002902F44022B2F5802FB1
:1037900015D12A4A02EB4012127F012A0FD14FF0B5
:1037A000A042D2F80818D4F8002911F4807F14BF81
:1037B0004FF080514FF000510A43C4F80029DBB3A9
:1037C0004FF0A0430121D3F8342801FA00F0104350
:1037D000C3F8340870BDD4F8106B06F06046C4F826
:1037E000106BD4F8106B32431343C4F8103BD4F879
:1037F000003B43F00443C4F8003BD4F8003B03F41F
:103800004023B3F5802F17D101EB40010B4800EBAB
:1038100001110B7B012B0FD14FF0A043D3F80828E7
:10382000D4F8003B12F4807F14BF4FF080524FF069
:1038300000521343C4F8003B70BD00BF501B002072
:10384000281B002070B50446E40900F07F001346F1
:103850000F4E04EB40021201B518B15000226A600D
:103860002B8140B90B4A22F8143001222146FFF780
:1038700069FF012070BD6D89B3FBF5F18AB205FBCC
:10388000113189B209B9002BF0D1013292B2EDE7C2
:10389000501B0020281B002070B52C4B2C49002207
:1038A000DA612C4A0E681446D568ED0344D4D16819
:1038B000C90744BF0121D160E06810F4F9703AD023
:1038C000E268D60605D5DA6942F01002DA61102204
:1038D000E260204AD1688D0605D5D96941F008011A
:1038E000D9612021D160D1684C0605D5D96941F054
:1038F0000401D9614021D160164AD168080605D576
:10390000D96941F00201D9618021D160D168C9052E
:1039100006D5D96941F00101D9614FF48071D160B8
:103920000C49CA68920705D5DA6942F02002DA61CB
:103930000223CB60012070BD451CB5D018B10D68C5
:10394000AD1BA842B0D2032070BD00BF2C1B0020CD
:103950004C1B0020003C02402DE9F04F374C002367
:103960004FF0010A4FF00F084FF0030B0AFA03FE65
:103970000EEA0102964553D123F0030505F1804577
:1039800005F59C3503F00307AE68BF0008FA07F998
:1039900006EA090C2A4EB04247D006F58066B042CE
:1039A00045D006F58066B04243D006F58066B04249
:1039B00041D006F58066B0420CBF04260726BE4003
:1039C000B44510D12668D24316402660666816407A
:1039D0006660A6681640A660E6683240E260AA68A3
:1039E00022EA0902AA605A0005680BFA02F2D243E1
:1039F000DE08154000EB8606056003F00705376A10
:103A0000AD0008FA05F527EA05053562C5681540D9
:103A1000C560456825EA0E05456085682A408260D4
:103A20000133102BA2D1BDE8F08F0026C7E7012695
:103A3000C5E70226C3E70326C1E700BF003C0140FB
:103A4000000002402DE9F74FDFF884E15E4CDFF81B
:103A5000848100234FF0010C0A680CFA03F52A4018
:103A6000954240F0A1804D6825F01005013D012DE3
:103A70004FEA430711D886680325BD4026EA0506AC
:103A8000CD68BD40354385604E684568C6F3001675
:103A900025EA02059E402E4346600326C568BE40C7
:103AA000F64305EA06098D68BD4045EA0905C5608B
:103AB0004D6825F01005022D16D14FEAD30A00EB10
:103AC0008A0A03F0070BDAF820504FEA8B0B4FF00D
:103AD0000F0909FA0BF925EA09090D6905FA0BF531
:103AE00045EA0905CAF8205005682E404D6805F0E2
:103AF0000305BD402E4306604D68EE0054D54FF0DF
:103B0000000BCDF804B0DEF84460304D46F480463A
:103B1000CEF84460DEF8446006F480460196019ECB
:103B200023F0030606F1804606F59C3603F00309F0
:103B3000D6F808A04FEA89090F2707FA09F7A84223
:103B40002AEA070737D005F58065A84235D005F584
:103B50008065A84233D0404533D005F50065A842C2
:103B60000CBF0425072505FA09F53D43B5604D68EE
:103B70002768D643ED0354BF3740174327604D688D
:103B80006768AD0354BF3740174367604D68A76847
:103B9000ED0254BF37401743A7604D68E768AD0298
:103BA00054BF37401743E7600133102B7FF454AF05
:103BB00003B0BDE8F08F5D46D5E70125D3E70225C8
:103BC000D1E70325CFE700BF003C014000000240E1
:083BD00000380240000C024025
:103BD800303132333435363738394142434445463B
:103BE80000000000000000000102030406070809A5
:103BF800090409024000020100A032090400000281
:103C0800080650040705010240000007058102402C
:103C18000000090401000203000005092111010048
:103C2800012222000705020340000A07058203401B
:103C3800000A12010002000000409A2369000001F6
:103C48000102030153540053544D33324634343681
:103C580020466C6578692D48616C005546320048ED
:103C68004632204849440048463220576562555339
:103C780042000000F83B00084C3C00084F3C00089C
:103C88006F010020633C0008673C00086F3C000897
:103C980041646166727569740055463220426F6FDF
:103CA800746C6F61646572000040000000400000A1
:103CB8000040000000400000000001000000020079
:103CC80000000200000002000000020000000200E4
:103CD8000000020000000200004000000040000058
:103CE8000040000000400000000001000000020049
:103CF80000000200000002000000020000000200B4
:103D0800000002000000020000FF00FF0000CC6677
:103D180000000000A5180008951800087D2000087C
:103D28005D1F0008B51800080000000015210008F4
:103D38000521000805280008B12400084D230008C3
:103D4800000000000600FF0901A101090215002674
:103D5800FF007508954081020903150026FF0075CC
:103D68000895409102C0EB3C9055463220554632AA
:103D78002000020101000240000000F802010100D9
:103D880001000000000009010100800029420042F2
:103D980000464C45584934343600000046415431F9
:103DA800362020203C21646F637479706520687424
:103DB8006D6C3E0A3C68746D6C3E3C626F64793E83
:103DC8003C7363726970743E0A6C6F636174696FE7
:103DD8006E2E7265706C61636528226874747073E6
:103DE8003A2F2F7777772E65787061747269612E14
:103DF80063612F22293B0A3C2F7363726970743EFA
:103E08003C2F626F64793E3C2F68746D6C3E0A00EB
:103E180054696E7955463220426F6F746C6F6164D5
:103E2800657220302E392E342D352D6762333039A6
:103E38003738312D6469727479202D2073742F639B
:103E48006D7369735F6465766963655F663420289E
:103E580076322E362E342D312D673236313565388F
:103E680036292073742F73746D3332663478785F13
:103E780068616C5F647269766572202876312E37C6
:103E88002E39292074696E797573622028302E3195
:103E9800322E302D3230332D6761346366643163DE
:103EA8003639290D0A4D6F64656C3A2053542053F6
:103EB800544D33324634343620466C6578692D4883
:103EC800616C0D0A426F6172642D49443A20535463
:103ED8004D3332463434362D466C6578692D486149
:103EE8006C0D0A446174653A204A756E203137209A
:083EF800323032320D0A0000E5
:083F000040C3FF7F0100000037
:103F080001000000AF00002010000C000000E0FFDE
:103F18001F00000000000000100000000100000069
:103F28000024F400494E464F5F5546325458540019
:103F3800183E0008E600000000000000494E444515
:103F48005820202048544D00AC3D00086B0000006C
:103F58000000000043555252454E54205546320049
:0C3F68000000000000000000000000004D
:04000005080007DD0B
:00000001FF
